:020000040800F2
:1000000058040020AD010008170E00085B0D000821
:10001000150E0008B9020008710F0008000000006A
:100020000000000000000000000000001B0E00089F
:10003000BB02000800000000190E00081D0E000899
:10004000C7010008C7010008C7010008C701000870
:10005000C7010008C7010008C7010008C701000860
:10006000C7010008C7010008C7010008C701000850
:10007000C7010008C7010008C7010008C701000840
:10008000C7010008C7010008C70100080000000000
:10009000000000000000000000000000C701000890
:1000A000C7010008CD0E0008C7010008C7010008FD
:1000B000C7010008C7010008C7010008C701000800
:1000C000C7010008C7010008C7010008C7010008F0
:1000D000C7010008C7010008C701000800000000B0
:1000E000C7010008C7010008C701000800000000A0
:1000F000000000000000000000000000C701000830
:1001000000000000C7010008C7010008C70100087F
:1001100000000000000000000000000000000000DF
:10012000C7010008C7010008C7010008C70100088F
:10013000C7010008000000000000000000000000EF
:10014000000000000000000000000000C7010008DF
:10015000C7010008C7010008C7010008C70100085F
:10016000C7010008C70100080000000000000000EF
:10017000000000000000000000000000000000007F
:1001800000000000C701000800000000000000009F
:10019000C7010008C7010008DFF80CD000F07AF8AA
:1001A00000480047B10F0008580400200648804767
:1001B00006480047FEE7FEE7FEE7FEE7FEE7FEE74C
:1001C000FEE7FEE7FEE7FEE7B10E00089901000832
:1001D0002DE9F05F0546002092469B46884606467C
:1001E000814640241BE0284641464746224600F00F
:1001F00041F853465A46C01A914110D31146184649
:10020000224600F028F82D1A67EB01084F462246D7
:100210000120002100F01FF817EB00094E41201EBD
:10022000A4F10104DFDC484631462A464346BDE8D6
:10023000F09FD2B201E000F8012B491EFBD27047BB
:100240000022F6E710B513460A4604461946FFF7A2
:10025000F0FF204610BD202A04DB203A00FA02F10C
:10026000002070479140C2F1200320FA03F31943A4
:1002700090407047202A04DB203A21FA02F0002146
:10028000704721FA02F3D040C2F1200291400843A6
:1002900019467047064C074D06E0E06840F0010340
:1002A00094E8070098471034AC42F6D3FFF778FF84
:1002B0004C1000086C100008FEE7704772B6FEE7AD
:1002C00070B5044600F0EAF80546601C02D0044808
:1002D0000078044400F0E2F8401BA042FAD370BD5D
:1002E000080000202DE9F84F00224FF001080325F7
:1002F0004FF00F0E0B6808FA02F42340A34271D1AD
:100300004E68012E05D0022E03D0112E01D0122EE0
:1003100015D18668570005FA07FC26EA0C06D1F8C5
:100320000CC00CFA07FC4CEA060CC0F808C0466882
:10033000A6430C79C4F30014944034434460C66867
:10034000570005FA07FC8C6826EA0C06BC403443CB
:10035000C4604C68022C01D0122C13D1D40800EBDD
:100360008404A346D4F8209054074FEAD46A0EFAC6
:100370000AF629EA06090E6906FA0AF646EA0906A5
:10038000CBF8206004680E7924EA0C0406F003061A
:10039000BE40264306604C68E40056D52E4C2668C5
:1003A00046F480462660246822F0030604F4804464
:1003B00000942A4C3444A446D4F808489607370FD2
:1003C0000EFA07F6B443264EB04201D1002615E0DE
:1003D000244EB04201D1012610E0234EB04202D19A
:1003E00002260BE031E0214EB04201D1032605E0A8
:1003F0001F4EB04201D1042600E00726BE4026432E
:10040000CCF808681B4E34684F689C43FF0300D546
:100410001C433460174E361D34684F689C43BF033D
:1004200000D51C433460134E083634684F689C4333
:10043000FF0200D51C4334600E4E0C3634684F6802
:100440009C43BF0200D51C433460521C102AFFF4A9
:1004500051AFBDE8F88F0000443802400030014041
:10046000000002400004024000080240000C02406C
:1004700000100240003C01400069084000D001200B
:100480007047426931EA020200D109048161704774
:100490000AB1816170470904FBE7000001488068E8
:1004A000704700000800002002488168027811446B
:1004B00081607047080000200B4810B5016841F4C6
:1004C00000710160016841F480610160016841F4DC
:1004D00080710160032000F06FF8002000F006F842
:1004E00000F024F8002010BD003C024070B50D4D16
:1004F00004464FF47A712878B1FBF0F00A49096894
:10050000B1FBF0F000F0E4FA48B9102C07D2002259
:100510002146501E00F030F800206C6070BD0120B4
:1005200070BD000008000020140000200A4808B533
:10053000016841F480410160006800F4804000904F
:100540000548001F016841F080510160006800F01B
:100550008050009008BD000044380240002809DBAC
:1005600000F01F02012191404009800000F1E020CD
:10057000C0F8001170470000F0B40E4B1B680C4629
:10058000C3F30223C3F10705042D00D90425191D67
:10059000072901D2002300E0DB1E012606FA05F13F
:1005A000491E214099409E40761E16403143F0BCC2
:1005B00000F0DFBC0CED00E0064900F0070208681F
:1005C0004FF6FF03184040EA0220034A1043086038
:1005D000704700000CED00E00000FA052DE9F0473F
:1005E0000E46050065D0DFF81481D8F80000F7B298
:1005F00000F00F00B04207D288F80070D8F8000071
:1006000000F00F00B04254D128683D4C810712D54C
:10061000400703D5206840F4E050206028780007A8
:1006200003D5206840F4604020602068A96820F06D
:10063000F000084320602878C0072DD03049686852
:100640000839012812D0022813D0032811D00968D4
:10065000890700292DDA216821F003010143216077
:10066000FFF71CFF814641F2883A0EE009688903D2
:10067000EFE709688901ECE7FFF710FFA0EB09013C
:10068000514502D90320BDE8F0872068696800F071
:100690000C00B0EB810FEFD1D8F80010404601F00C
:1006A0000F01B14207D90770006800F00F00B04297
:1006B00001D00120E7E72878400705D52068E968E0
:1006C00020F4E050084320602878000706D5206811
:1006D000296920F4604040EAC100206000F018F869
:1006E0002168084AC1F30311515CC84006490860FB
:1006F00006480068FFF7FAFE0020C4E7003C02400D
:10070000083802403C100008140000200C000020B3
:10071000154810B5006810F00C02144813D01449A5
:10072000042A0FD0082A0ED10F4C241F22682368F8
:1007300002F03F025B0207D52068C0F38810A0FBDF
:10074000010106E0084610BD2168C1F38811A1FB34
:1007500000010023FFF73CFD2168C1F30141491C62
:100760004900B0FBF1F010BD083802400024F4004D
:1007700040787D012DE9F84F04006ED02078DFF835
:100780003C93C007A9F104054AD009F104000168AF
:10079000C1F38101012908D00068C0F3810002285B
:1007A0000AD1D9F80000400206D52868800337D561
:1007B00060680028E1D033E06068B0F5803F10D079
:1007C000B0F5A02F286810D020F480302860286869
:1007D00020F4802028606068A8B1FFF75FFE06461D
:1007E0000DE0286840F48030F4E740F48020286071
:1007F000F7E700BFFFF752FE801B642873D8286814
:100800008003F7D50CE0FFF749FE064605E000BF80
:10081000FFF744FE801B6428F0D828688003F7D4D3
:100820002078DFF89C8280074FF0000A3ED5A3486D
:10083000001D016811F00C0F08D00068C0F38100A2
:1008400002280BD1D9F80000400207D4286880079D
:1008500016D5E068012800D112E02BE1E068B8B1BC
:100860000120C8F80000FFF719FE064605E000BFAA
:10087000FFF714FE801B0228C0D828688007F7D530
:100880002868216920F0F80040EAC10028600DE0E6
:10089000C8F800A0FFF702FE064604E0FFF7FEFDE1
:1008A000801B02281FD828688007F7D4207800070B
:1008B00022D5824E83486169703671B10121016091
:1008C000FFF7ECFD074604E0FFF7E8FDC01B022838
:1008D00009D830688007F7D50EE0C0F800A0FFF710
:1008E000DDFD074605E082E0FFF7D8FDC01B0228CA
:1008F0007DD830688007F7D42078400768D5DFF8C6
:10090000BCB100270BF13C0BDBF80000C0000BD49E
:10091000DBF8001041F08051CBF80010DBF800004C
:10092000012700F080500090674E3068C00510D459
:10093000306840F480703060FFF7B0FD009005E053
:10094000FFF7ACFD0099401A022850D83068C00566
:10095000F6D55A4EA0686C3601280FD005283068AD
:1009600010D020F001003060306820F004003060CA
:10097000A068B8B1FFF792FD00900FE0306840F03A
:100980000100F4E740F004003060F7E7FFF786FD70
:100990000099411A41F28830814266D83068800758
:1009A000F4D50EE0FFF77AFD009007E0FFF776FD43
:1009B0000099411A41F28830814256D83068800748
:1009C000F4D42FB1DBF8001021F08051CBF80010E7
:1009D000A069C8B33949091D0968C1F38101022919
:1009E0004AD00228504607D0C8F8600000E03CE03A
:1009F000FFF754FD04463BE04746C8F86000FFF7A8
:100A00004DFD064605E000BFFFF748FD801B0228AC
:100A10002BD828688001F7D4D4E907010843A16ADC
:100A20002A4A490802EB0141626A41EA82110843FD
:100A300094F82C1040EA0161C9F8001001203866D2
:100A4000FFF72CFD044606E036E000BFFFF726FD69
:100A5000001B022809D828688001F7D52CE000BFC8
:100A6000FFF71CFD001B022802D90320BDE8F88F08
:100A700028688001F4D41FE00128F7D0D9F80000DD
:100A8000E26900F48001914214D1226A00F03F0132
:100A900091420FD147F6C071626A0140914209D17B
:100AA000A26A00F44031914204D1E16A00F0706022
:100AB000884201D00120D9E70020D7E7043802405E
:100AC00000004742800E4742007000400000FFFFD8
:100AD00010B5401EB0F1807F01D3012010BD4FF052
:100AE000E02460610F21601700F043FA0020A0614C
:100AF00007202061002010BD7047704710B504002A
:100B000003D094F83D0010B107E0012010BD002093
:100B100084F83C00204600F00DF8022084F83D00E7
:100B2000211D206800F0D8F9012084F83D00002044
:100B300010BD000008B500680B49884212D10B486F
:100B4000016841F4003101600068002200F40030C7
:100B5000009011461920FFF70FFDBDE8084019204D
:100B6000FFF7FCBC08BD00000044014044380240CF
:100B70000168CA6842F00102CA600068816801F039
:100B80000701062903D0016841F00101016000203E
:100B90007047704770B50446006801694FF0000562
:100BA000C943890715D4C168C943890711D4E91E0F
:100BB000016101202077206880698007204602D0EB
:100BC000FFF7E7FF04E000F098F8204600F096F801
:100BD000257720680169C943490717D4C168C9430B
:100BE000490713D46FF004010161022020772068C7
:100BF000806910F4407F204602D0FFF7CAFF04E06E
:100C000000F07BF8204600F079F82577206801692C
:100C1000C943090716D4C168C943090712D46FF044
:100C200008010161042020772068C0698007204600
:100C300002D0FFF7AEFF04E000F05FF8204600F0BE
:100C40005DF8257720680169C943C90617D4C168D2
:100C5000C943C90613D46FF0100101610820207741
:100C60002068C06910F4407F204602D0FFF791FF52
:100C700004E000F042F8204600F040F825772068B4
:100C80000169C943C90708D1C168C943C90704D16B
:100C9000891E0161204600F033F820680169C943CC
:100CA000090609D4C168C943090605D46FF080015B
:100CB00001612046FFF720FF20680169C94349060A
:100CC00009D4C168C943490605D46FF040010161E8
:100CD000204600F041F820680169C94389060BD419
:100CE000C168C943890607D46FF02001016120461D
:100CF000BDE87040FFF701BF70BD7047704700004E
:100D000070B50068114988420FD1114C1148012576
:100D1000217859B1002601290FD0022905D10121DE
:100D2000FFF7AAFB002800D1267070BD0121FFF754
:100D3000A3FB0028F9D1257070BD0121FFF79CFBB2
:100D40000028F1D102202070657070BD0044014080
:100D500000000020000002407047FEE770B586B03A
:100D600014216846FFF76CFA19480024016841F025
:100D700004010160016801F004010591016841F07E
:100D800080010160016801F080010591016841F076
:100D90000101016000680F4E00F001004FF40055A2
:100DA0000590002229463046FFF772FB0095012589
:100DB000CDE90154694630460394FFF793FACDE933
:100DC0000054694604480295FFF78CFA06B070BDDE
:100DD0003038024000080240000002400C4810B5C4
:100DE0000A49016042F20F714160002140F22B126A
:100DF000C0E9021201618161FFF780FE002803D083
:100E0000BDE81040FFF75ABA10BD00000044014091
:100E100018000020FEE7FEE770477047FFF744BB6D
:100E200030B593B030216846FFF70AFA14210CA8B8
:100E3000FFF706FA1C480024016841F08051016068
:100E4000006800F0805011901848016841F440415A
:100E500001600068022500F44040119001200390D9
:100E600010200490009506950820CDE907406420E5
:100E7000CDE9090504200B906846FFF77BFC08B11B
:100E800072B6FEE70F20CDE90C054FF48050CDE996
:100E90000E4003210CA81094FFF7A0FB002801D0FE
:100EA00072B6FEE713B030BD40380240007000401B
:100EB0000548016841F47001016003494FF000608A
:100EC000803908607047000088ED00E00148FFF7B6
:100ED00061BE000018000020F0B502681D4B1E4CDA
:100EE0009F031E4D1E4E984207D0B84205D0A04227
:100EF00003D0A84201D0B04204D122F0700C4A685D
:100F000042EA0C02984210D0B8420ED0A0420CD057
:100F1000A8420AD0B04208D0124CA04205D0124CD0
:100F2000A04202D0114CA04203D122F44074CA68FE
:100F300022434C6922F08002224302608A68C26226
:100F40000A688262984201D1096901630121416105
:100F5000F0BD000000000140000400400008004017
:100F6000000C0040004001400044014000480140A6
:100F7000FEE70907090E002804DB00F1E02080F8F5
:100F80000014704700F00F0000F1E02080F8141DFD
:100F9000704702E008C8121F08C1002AFAD1704742
:100FA0007047002001E001C1121F002AFBD17047E9
:100FB000FFF782FAFFF734FFFFF7D0FEFFF70EFFCF
:100FC0001B496FF00100096808611948FFF7D0FD5F
:100FD0000126184CDFF8609000254FF47A774FF423
:100FE00000586078012807D16068032802DA401CA5
:100FF000606000E066606570606801280BD00228C0
:101000000FD00328EDD141464846FFF73AFA1920A0
:10101000FFF756F9E5E741464846FFF732FA38460A
:10102000F6E741464846FFF72CFA6420F0E7000057
:10103000180000200000002000080240000000000E
:101040000000000001020304060708096C100008F4
:101050000000002018000000920F00088410000813
:101060001800002040040000A20F0008000000004B
:10107000010000000100000010000000000000005E
:041080000024F40054
:040000050800019955
:00000001FF
